:020000040800F2
:10000000A0080020D5020008F9460008C93B0008F6
:10001000F5460008D9160008A94A000800000000AB
:100020000000000000000000000000006D47000814
:10003000DD1600080000000069470008C5470008F9
:10004000EF020008EF020008EF020008EF020008CC
:10005000EF020008EF020008EF020008EF020008BC
:10006000EF020008EF020008EF020008EF020008AC
:10007000EF020008EF020008EF020008EF0200089C
:10008000EF020008EF020008EF020008EF0200088C
:10009000EF020008EF020008EF020008EF0200087C
:1000A000EF020008EF020008EF020008EF0200086C
:1000B000EF020008EF020008EF020008EF0200085C
:1000C000EF020008EF020008EF020008EF0200084C
:1000D000EF020008EF020008EF020008EF0200083C
:1000E000EF020008EF020008EF020008EF0200082C
:1000F000EF020008EF020008EF020008EF0200081C
:10010000EF020008EF020008EF020008EF0200080B
:10011000EF020008EF020008EF020008EF020008FB
:10012000EF020008EF020008EF020008EF020008EB
:10013000EF020008EF020008EF020008EF020008DB
:10014000EF020008EF020008EF020008EF020008CB
:10015000EF020008EF020008EF020008EF020008BB
:10016000EF020008EF020008EF020008EF020008AB
:10017000EF020008EF020008EF0200080000000094
:10018000EF020008EF02000800F002F800F092F819
:100190000AA090E8000C82448344AAF10107DA45E2
:1001A00001D100F087F8AFF2090EBAE80F0013F0A2
:1001B000010F18BFFB1A43F001031847485C000009
:1001C000685C0000103A24BF78C878C1FAD852079A
:1001D00024BF30C830C144BF04680C6070470000C1
:1001E0000023002400250026103A28BF78C1FBD840
:1001F000520728BF30C148BF0B6070476E2900F01E
:10020000DF81702900F02183662905F03885652992
:1002100005F03585672905F03285612905F03185BE
:1002200003681B0A28BF41F08001692900F08C8116
:10023000642900F08981752900F086816F2900F01A
:10024000AF82782900F0ED82E92900F04982E429A3
:1002500000F04682F52900F04382EF2900F0AC82DD
:10026000F82900F0EC820368DB0928BF41F0800127
:10027000632900F0ED87732900F0F287E32900F08D
:10028000FD87F32901F00280002070471FB505F0BB
:10029000E4FC01F051F804000020002105F0CCF945
:1002A000401C60600020002105F0B0F9E0601FBD37
:1002B00010B510BD01F012F81146FFF7E7FF04F08A
:1002C0003FFC01F0EFF803B4FFF7F2FF03BC01F0CD
:1002D00035F900000948804709480047FEE7FEE776
:1002E000FEE7FEE7FEE7FEE7FEE7FEE7FEE7FEE7E6
:1002F00004480549054A064B704700008548000838
:1003000089010008A0020020A0080020A00400200D
:10031000A004002053EA020C00F069802DE9F04BA4
:100320004FF00006002B1FBFB3FA83F503FA05F464
:1003300024FA05F65E4012BF1643B2FA82F502FABD
:1003400005F4C5F120051EBF22FA05FC44EA0C04A1
:10035000203556EA044C4FEA144418BF641C4FF091
:1003600000084FF00009904271EB030C39D30029CB
:1003700019BFB1FA81F701FA07F6B0FA80F700FA6F
:1003800007F6C7F120071EBF20FA07FC46EA0C0655
:100390002037B6FBF4FCA7EB0507103F07F01F0B57
:1003A000CBF120062CFA06F60CFA0BFB44BFB34641
:1003B0000026202FA4BF5E464FF0000B5BEA060C20
:1003C00008BF4FF0010B19EB0B0948EB0608ABFB1C
:1003D000027C06FB02CC0BFB03CCC01B71EB0C01B7
:1003E000C1E70B46024641464846BDE8F08B13B5CF
:1003F000084318BF4FF0FF300146AFF30080BDE85F
:100400001C4070470FB41CB5084B06AA7B446946D4
:100410000090059800F0EDF804460020694600F0D1
:10042000FBF820461CBC5DF814FB0000090200002C
:100430004FF0000200B5134694469646203922BF7D
:10044000A0E80C50A0E80C50B1F12001BFF4F7AFC8
:10045000090728BFA0E80C5048BF0CC05DF804EBAA
:10046000890028BF40F8042B08BF704748BF20F818
:10047000022B11F0804F18BF00F8012B7047704716
:100480007047704770B5044685690068C10601D59C
:10049000302600E02026C00707D070BDD4E9012136
:1004A00030469047206A401C20626D1EF6D570BD14
:1004B00070B5044685690078C00707D170BDD4E9DE
:1004C000012120209047206A401C20626D1EF6D535
:1004D00070BD09684A0501D540B27047C905FCD511
:1004E00000B2704709684A0501D5C0B27047C90516
:1004F000FCD580B2704770B50C460546012A05D080
:100500002878800600D5EA69002302E0012305E08F
:100510005B1C934202D2E05C0028F9D1A869E6187E
:10052000C01AA861286A184428622846FFF7AAFF63
:1005300004E0D5E9012114F8010B9047B442F8D347
:100540002846FFF7B5FF70BD2DE9F04106460024AF
:1005500010687529314616A510D0FFF7BAFF00289C
:1005600002DA404213A507E031688A0701D512A5D7
:1005700002E0490704D511A5012401E0FFF7B2FF0D
:1005800000210A2206F1240709E0B0FBF2FCB0FBCF
:10059000F2F302FB1C00303078541846491C002846
:1005A000F3D123462A463046BDE8F04100F061BA57
:1005B000000000002D0000002B00000020000000C3
:1005C00011680268006A530501D508700AE0D30576
:1005D00001D5088006E0130603D5C217C1E9000261
:1005E00000E008600120704701694A1C0261087838
:1005F000704700B58FB0CDE9013100210591054963
:100600007944CDE903101146684600F029F90FB08E
:1006100000BD0000E5FFFFFF0A6802F8010B0A6059
:10062000704700002DE9FF5F15468A460446DFF853
:10063000AC80F8440027D8E900103E46CDE9001010
:1006400010E03AF816106A4602A800F023FE411C9A
:1006500007D02178890603D5E269391891420DD86F
:100660000744761C2078800602D5E069B84205DD93
:10067000AE42E6DB3AF816000028E2D1A069C01BC2
:10068000A0612046FFF7FEFED8E90010CDE900107A
:10069000002017E03AF818106A4602A800F0FAFDA8
:1006A000B0F1FF3F81460BD000250DF1080B05E0AE
:1006B000D4E901211BF8050090476D1C4D45F7D387
:1006C00008F10100B0428046E4DB206A3844206231
:1006D0002046FFF7EDFEBDE8FF9F000052560000E8
:1006E0002DE9F0418046D21D22F007020025D2E913
:1006F0000002F52915A614D0011E72F1000106DAD8
:100700000023D0EB030063EB020211A608E0D8F847
:1007100000108B0701D50FA602E0490701D50EA6F0
:1007200001251146002408F1240704E000F05CF9DB
:1007300030323A55641C50EA0102F7D12B4632465A
:1007400021464046BDE8F04100F093B900000000AA
:100750002D0000002B0000002000000030B400211C
:1007600000F1240408E002F00705D208303542EA1F
:100770004372DB086554491C52EA0305F3D104684F
:10078000002310A2250708D504F020040C4304D050
:10079000C46901230CA2641EC46130BC00F069B9B5
:1007A00010B5044621461068FFF79CFE024620461D
:1007B000BDE810400023D1E7D21D22F00701D1E9A6
:1007C0000023CBE70000000030000000F0B40D462D
:1007D0000188090502D5214C7C4402E01F4C7C4471
:1007E0000E34002100F1240608E002F00F07120980
:1007F000E75D42EA03721B097754491C52EA03077A
:10080000F3D102780023120704D5702D06D009B168
:10081000022311342246F0BC00F02BB9012310341E
:10082000F8E770B504460D4621461068FFF75AFEFA
:10083000024629462046BDE870400023C6E7D21D87
:1008400022F00703D3E90023C0E70368126843F0EE
:10085000200303600823C3610023B7E7B4540000FA
:100860002DE9F05F894604464FF0000ADFF874B1C5
:10087000FB44C0F820A02046E1688847002874D0D7
:10088000252806D0D4E901219047206A401C206227
:10089000F1E700265F462046E168884720280546A4
:1008A00007DB312D05D2781910F8200C08B106436A
:1008B000F1E7B00701D526F00406C4F81CA0002714
:1008C000C4F818A02A2D09D0284604F097FE38B3A2
:1008D00004EB8708303DC8F8185019E059F8041B9C
:1008E000204604EB87029161E1688847012F0546A5
:1008F00018D1E069002820DA26F020061DE0D8F89B
:10090000180000EB800005EB40003038C8F81800F4
:100910002046E1688847054604F070FE0028EED1C5
:10092000012F0AD02E2D08D12046E16888477F1C70
:100930000546022F46F02006C4DBA069002803DA32
:10094000404246F00106A061F00701D026F01006F3
:100950006C2D0BD0682D09D04C2D39D06A2D35D097
:10096000742D35D07A2D33D016E038E0E1682F466B
:1009700020468847B842054609D16C2F26D04FF44F
:100980008060E168064320468847054604E06C2FF6
:100990001AD04FF4807006430DB3A5F14100192819
:1009A00002D8203546F400664A462946204626608D
:1009B0004E46FFF723FC80B101280BD0F61D26F030
:1009C000070000F1080956E74020E4E78020D8E757
:1009D0000020D6E706F104094DE7284652E7206AD1
:1009E000BDE8F09F4454000030B5B0F10A0271F147
:1009F00000034FEA900E4EEA817EB0EB0E0061EBF1
:100A000091014FEA101E4EEA017E10EB0E0041EB01
:100A100011114FEA102E4EEA016E10EB0E0041EB61
:100A200011214FEA104E4EEA014E10EB0E0041EB41
:100A30001141401841F100014FEAD00040EA4170F5
:100A40004FEAD1014FEA810444EA907410EB80052B
:100A500044EB01046D1944EB0404521BA3414FF015
:100A6000000348BF0A3200D530BD401C41F10001EF
:100A700030BD2DE9F0470D4699469246044600F1F7
:100A800024080168880604D5E06921F0100121607E
:100A900000E00120A84201DD471B00E00027A1691A
:100AA0007A1902EB0900081AA0612078C00602D466
:100AB0002046FFF7E7FC002608E0D4E901211AF8F8
:100AC00006009047206A401C761C20624E45F4DBED
:100AD0002078C0060AD52046FFF7D4FC06E0D4E90A
:100AE000012130209047206A401C2062381EA7F167
:100AF0000107F4DC07E0D4E9012118F8050090476C
:100B0000206A401C2062281EA5F10105F3DC204666
:100B1000FFF7CEFC2078000602D50220BDE8F08762
:100B20000120FBE72DE9FF4F0C461E464FF0FF3733
:100B30008BB0D2E90001DDF860800A908A46C1F3EB
:100B40000A5505B93D46002108464FF00000BAF1AC
:100B5000000F00F4400005DA00EB80004FF4400184
:100B600001EA50004FEA9059B9F1010F00DDB94692
:100B70000A9850EA4A000ED044F61050A5F2FF350C
:100B800045432F14B8F1000F1ED07542291E1EDDFB
:100B9000C9F100021CE0B8F1010F4FF0000001D0D4
:100BA000302103E0F24305E02154401CB042FBDB5E
:100BB00030460022002121540B99C1F80880C1E978
:100BC00000200FB0BDE8F08FBD1B6D1CDEE74A466C
:100BD00000DA694206A800F0F3FB06AB93E80700D1
:100BE00003AB83E8070050460A9904F027F98DE823
:100BF0000700A0F500501F3800900398002D0ADD73
:100C000042F21F014A460844002303A903906846A4
:100C100004F090FB09E0A0F500504A461F3800237D
:100C200003A90390684604F09AFB8DE807000004CE
:100C3000000C03D04FF0FF30410800E01046B8F13F
:100C4000000F03D00022009215461EE0751E05D449
:100C5000FFF7CAFE303262556D1EF9D5B346012248
:100C6000084302D000227F1C04E02078302801D104
:100C700000227F1E002A099784D01DE0112D07DA7B
:100C8000FFF7B2FE303262556D1C50EA0102F5D119
:100C9000084302D00098C8B10EE00021681E05E0AC
:100CA000235C625C63542254401E491C8142F7DB82
:100CB000AB46A81B401E0990002004F80B000B98BF
:100CC000099AC0F80880C0E9002B7AE711264FF096
:100CD000000857E72DE9F04F88460446D21D22F060
:100CE000070191B0D1E90001CDE90A0104F06EFCE1
:100CF00002460B98C00F01D02D2007E02068810725
:100D000001D52B2002E0202101EAC000032A09902E
:100D100001D0072A05DB03464146204600F010FBC0
:100D20000BE12078800601D5E06900E00620B8F1EB
:100D3000650F814606D0B8F1660F18D0B8F1670F7D
:100D400070D131E00020B9F1110F009001DB1123C7
:100D500001E009F101030AAA01A90CA8FFF7E2FECC
:100D6000DDE90C70002609F10105834647E001200A
:100D70004B4600904FF000470AAA01A90CA8FFF7C4
:100D8000D1FEDDE90DB00C995D46002610B909F1E0
:100D900001000D18B9EB050003D4C0F1FF3609F1CD
:100DA0000105A5EB09002BE0B9F1010F01DA4FF0C5
:100DB00001090020B9F1110F0090484601DD11230F
:100DC00000E003460AAA01A90CA8FFF7ABFEDDE983
:100DD0000C704D4600268346207800070AD4AB45A8
:100DE00000DA5D4601A8012D04DD411911F8011C4E
:100DF000302907D04F4502DA17F1040F04DA012039
:100E000082460FE06D1EEEE7002F02DCED1B3E4434
:100E100003E0781CA84200DD7D1CB81B00F1010A2C
:100E20004FF000472078000703D4AA4501DB4FF0BC
:100E3000FF3A0021B7F1004F0DF143088DF8431040
:100E400024D002202B23002F01DA7F422D230A21F8
:100E5000021EA0F1010000DC5FB197FBF1FC97FBE3
:100E6000F1F201FB1C7C17460CF1300C08F801CDA7
:100E7000EEE7A8F1010003702188090501D545219D
:100E800000E06521A0F1010800F8011C09980FA9F4
:100E9000A1EB0807FF1D00B10120411901EBEA7029
:100EA000A1693844081A401EA0612078C00602D407
:100EB0002046FFF7E7FA099828B1D4E901219047C5
:100EC000206A401C20622078C00622D52046FFF709
:100ED000D9FA1EE0002E04DBB34502DD01A8805DD7
:100EE00000E03020D4E901219047206A401C2062B4
:100EF000761CAAF101005FEA000A0AD100F01CFA90
:100F0000C0680168405CD4E901219047206A401C18
:100F10002062281EA5F10105DCDC07E0D4E90121EF
:100F200018F8010B9047206A401C2062381EA7F178
:100F30000107F3DC2046FFF7BBFA032011B041E6BE
:100F40002DE9F04F04460D46D21D22F0070089B06E
:100F5000D0E900974846394604F038FB0246F80FBE
:100F600001D02D2307E02068810701D52B2302E063
:100F7000202101EAC0038DF820300BB1012000E0F0
:100F80000020032A824601D0072A04DB2946204696
:100F900000F0D6F93FE12078800601D40D2500E06D
:100FA000E569C7F30A560D2D49DA00214FEA175BB0
:100FB00008464FF00000002F00F4400007DA00EB75
:100FC00080004FF4400100EBD07001EA6000811511
:100FD000012901DD4FF0FF3100224FEA850CBCF101
:100FE000180F06D31346ACF118004FF08052C240E0
:100FF00003E04FF4801323FA0CF30CF10C0CBCF15A
:10100000200F04D3ACF1200C09FA0CF001E007FA30
:101010000CF000294FF0004801DD18B90FE00ED1A7
:1010200040450CD319EB02095F4121B9404502D17B
:101030009F4329EA0209BBEB175F00D0761C20888A
:10104000000502D57B48784402E07A487844193894
:1010500008AA302302F80A30037C0AF10101002EAD
:101060000AF1020A53546A4602DC4FF0300101E0F3
:101070004FF031014FF001088DF8001002D0A6F2B8
:10108000FF3603E059EA470100D06B4E002D02DC29
:101090002178090704D54FF002082E218DF80110A0
:1010A000C44600210BE0C7F303433F01C35C491C66
:1010B0006D1E02F80830052908F1010801DA002D3B
:1010C000F1DC00210CE000EB1973491C1B786D1E4C
:1010D000082902F808304FEA091908F1010801DA75
:1010E000002DF0DC21688B0602D516E0A8F101087E
:1010F000E04505DD02EB080313F8013C302BF5D089
:10110000B8F1000F09DD02EB080313F8013C2E2BA8
:1011100003D1090701D4A8F10108002D05DD3E2106
:1011200002F808106D1E08F10108407C002E02F83C
:10113000080008F1010804DA2D20764202F80800C0
:1011400002E02B2002F808000A214FF47A70864250
:1011500008F101080BDB96FBF0F3303302F808309E
:1011600096FBF0F308F1010800FB136601E0642E22
:101170000CDB642096FBF0F3303302F8083096FB6A
:10118000F0F308F1010800FB136601E00A2E06DB0C
:1011900096FBF1F0303002F8080008F1010896FBE8
:1011A000F1F001FB1060303002F80800A16908F18D
:1011B000010808EB050202EB0A00081AA06120787A
:1011C000C00602D42046FFF75DF9216A08AE01EBA4
:1011D0000A00206204E0D4E9012116F8010B9047CF
:1011E000BAF1010AF7D22078C00602D52046FFF7EF
:1011F00049F96E4609E016F8010B3E280FD0D4E9F4
:1012000001219047206A401C2062B8F10108F2D207
:101210002046FFF74DF909B00320BDE8F08F206AA2
:101220002844206203E0D4E90121302090476D1E5C
:10123000EBD3F8E7924C000002FCFFFF10B54369C6
:1012400013B1AFF3008001E0FFF755F9012010BDA5
:10125000127800F124010A7000224A700122EDE7A1
:1012600011684FF0FF32E9E710B5436913B1AFF3EE
:10127000008001E0FFF7D6F9012010BD128800F1CF
:10128000240182840022C2840122EDE711684FF01C
:10129000FF32E9E72DE9F04116460C46054600F01D
:1012A00043F8036893F80101012807D0FF2C12D8F6
:1012B000185D80B101202C70BDE8F081D3F80701E2
:1012C0003246214603F20713C7182846BC46BDE83C
:1012D000F041002360474FF0FF30EDE7754600F026
:1012E000EBF8AE4605006946534620F007008546F8
:1012F00018B020B5FEF7FCFFBDE820404FF0000617
:101300004FF000074FF000084FF0000BAC46ACE880
:10131000C009ACE8C009ACE8C009ACE8C00921F0DC
:1013200007018D467047000010B500F005F8001D5C
:1013300010BD00BF0543000000487047300000208A
:101340002DE9F0411F46044603260168072A01F4EF
:10135000006004DB08B116A505E016A503E008B19E
:1013600015A500E015A521F010002060A069C01EA1
:10137000A0610FB1401EA0612046FFF783F84FB176
:10138000D4E9012138469047206A401C2062C01CE5
:10139000206206E0206AFAE7D4E9012115F8010B82
:1013A0009047761EF8D22046FFF782F8BDE8F0811C
:1013B0004E414E006E616E00494E4600696E6600F9
:1013C0002DE9F047814616468AB0354878440DC865
:1013D0008DE80D0032487844801C03AC0DC884E8C9
:1013E0000D0041F69B300844372190FBF1F290FB51
:1013F000F1F5A5F1800501FB12041B3C02D5644206
:10140000012000E00020DFF898A080460027FA4481
:10141000AAF1BE0A0EE0E0070AD03246684607EBA2
:10142000470101230AEB810103F099FF8DE80700D2
:1014300064107F1C002CEED1194F7F44AE3F19E0A1
:10144000E80715D007EB04100DF1180A90E80E001C
:101450008AE80E00C068F04201D19819089032461F
:10146000012306A903A803F07AFF03AB83E8070072
:101470006D10641C002DE3D14FF001033246694624
:10148000B8F1000F03A802D003F054FF01E003F00D
:1014900066FFC9E90001C9F808200AB0BDE8F08775
:1014A0009C49000010B50446AFF300802046BDE81B
:1014B0001040FEF708BF00000048704710000020F1
:1014C00030B44FF0013C50F8042B51F8043BCCFAF7
:1014D00052F4D51A20D1FCB950F8042B51F8043B32
:1014E000CCFA52F4D51A17D1B4B950F8042B51F8EC
:1014F000043BCCFA52F4D51A0ED16CB950F8042B37
:1015000051F8043BCCFA52F4D51A05D1002CDAD0AC
:1015100030BC4FF00000704729BAB1FA81F111F0E8
:101520001801D1F120008440F2D1CA40CB4012F022
:10153000FF0213F0FF0330BCD01A70470149182096
:10154000ABBEFEE7260002007047000082B00190AB
:1015500042F20030C4F2010000900099486820F483
:1015600040304860019842680099486810434860DC
:1015700001980168486820F480704860019801680B
:101580000269486840EA022048600198016848689A
:1015900020F04070486001980168826848681043F4
:1015A000486001980168886820F4006088600198AC
:1015B0000168C2688868104388600198806A0121C8
:1015C000C0F60071884219D0FFE701980168886869
:1015D00020F07060886001980168826A8868104312
:1015E000886001980168886820F040508860019800
:1015F0000168C26A8868104388600CE0019801683D
:10160000886820F07060886001980168886820F020
:1016100040508860FFE701980168886820F0020068
:1016200088600198027E0168886840EA420088600C
:10163000019890F82000C8B1FFE701980168486858
:1016400040F40060486001980168486820F46040F8
:10165000486001980168426A4EF20000CFF6FF70C0
:1016600000EB423248681043486006E00198016888
:10167000486820F400604860FFE701980168C86A84
:1016800020F47000C86201980168C2690020CFF69A
:10169000F07000EB0252C86A1043C86201980168FA
:1016A000886820F400708860019890F83020016804
:1016B000886840EA4220886001980168886820F4C0
:1016C00080608860019801684269886840EA8220E9
:1016D000886002B070470000FFE7FEE77047000037
:1016E00081B0EFF3108072B60090FFE7FEE70000D4
:1016F00080B588B0FFE70020079043F63000C4F2C1
:101700000200016841F008010160006800F0080073
:1017100007900798FFE7FFE70020069043F63000A8
:10172000C4F20200016841F002010160006800F0AB
:10173000020006900698FFE7C02001901220029058
:10174000012003900320049004200090059040F2B3
:101750000040C4F2020001A900F0B0FB01F090FBD0
:1017600044F6D351C1F26201A0FB0110800901F0DF
:101770009FFF009801F082FF4FF0FF3000221146DA
:1017800001F02AFA08B080BD80B588B0FFE70020DC
:10179000079043F63000C4F20200016841F00801EE
:1017A0000160006800F0080007900798FFE7FFE776
:1017B0000020069043F63000C4F20200016841F0B8
:1017C00002010160006800F0020006900698FFE741
:1017D0004FF44060019012200290012003900320FA
:1017E000049004200090059040F20040C4F20200F2
:1017F00001A900F063FB01F043FB44F6D351C1F2B1
:101800006201A0FB0110800901F052FF009801F075
:1018100035FF4FF0FF300022114601F0DDF908B02E
:1018200080BD000085B00390029100200190FFE789
:10183000039890F83C00012804D1FFE702208DF8BE
:101840001300F7E00399012081F83C00FFE7FFE770
:10185000029800680A281CD3FFE70298008800EB72
:101860004000A0F11E01072000FA01F20398016870
:10187000C8689043C86002998868098801EB4101F3
:101880001E3900FA01F203980168C8681043C86065
:1018900018E00298008800EB4001072000FA01F2EE
:1018A000039801680869904308610299886809886B
:1018B00001EB410100FA01F2039801680869104345
:1018C0000861FFE70298406806281BD8FFE70298E6
:1018D000406800EB8000411F1F2000FA01F20398CE
:1018E0000168486B9043486302990888496801EB96
:1018F0008101053900FA01F203980168486B104331
:1019000048633DE0029840680C281CD8FFE7029825
:10191000406800EB8000A0F123011F2000FA01F2D3
:1019200003980168086B9043086302990888496826
:1019300001EB8101233900FA01F203980168086B79
:10194000104308631BE00298406800EB8000A0F1A0
:1019500041011F2000FA01F203980168C86A904310
:10196000C86202990888496801EB8101413900FA8F
:1019700001F203980168C86A1043C862FFE7FFE7F5
:1019800042F20030C4F2010000900398006842F275
:101990000001C4F2010188420BD1FFE70298006800
:1019A000122806D1FFE70099486840F4800048609B
:1019B000FFE70398006842F20001C4F20101884287
:1019C0002ED1FFE702980068102805D0FFE70298A3
:1019D0000068112824D1FFE70099486840F400000E
:1019E000486002980068102819D1FFE740F2000013
:1019F000C2F2000000684DF68361C4F21B31A0FB07
:101A00000110800C00EB800040000190FFE701987E
:101A100020B1FFE7019801380190F8E7FFE7FFE701
:101A2000FFE70399002081F83C00FFE700208DF8D4
:101A30001300FFE79DF8130005B0704781B00090D8
:101A400000980068C06C01B07047000080B584B099
:101A5000029000208DF80700029820B9FFE70120CE
:101A60008DF80F0042E00298806A0121C0F60071F3
:101A7000884201D0FFE7FFE70298006C50B9FFE70A
:101A8000029800F037F8029900204864029981F822
:101A90003C00FFE70298006CC006002817D4FFE75F
:101AA0000298006C40F0020020F48850029908640B
:101AB0000298FFF74BFD0299002048640298006CE1
:101AC00040F0010020F002000299086403E00120C8
:101AD0008DF80700FFE7FFE70299002081F83C003E
:101AE000FFE79DF807008DF80F00FFE79DF80F0056
:101AF00004B080BD80B588B00790002006900590A6
:101B00000490039002900798006842F20001C4F22A
:101B1000010188422FD1FFE7FFE70020019043F643
:101B20004400C4F20200016841F480710160006861
:101B300000F4807001900198FFE7FFE7002000901B
:101B400043F63000C4F20200016841F00101016077
:101B5000006800F0010000900098FFE7022002906A
:101B600003200390002004900020C4F2020002A988
:101B700000F0A4F9FFE708B080BD000080B584B094
:101B80000290019100200090029800688068400552
:101B9000002816D5FFE7029800688068C005002875
:101BA0000FD5FFE70299086C40F020000864FFE7BA
:101BB0000299002081F83C00FFE701208DF80F001A
:101BC0006DE000F057FB0090FFE7029800680068A6
:101BD00000F00200022829D0FFE70198013020B36D
:101BE000FFE7019840B1FFE700F044FB0099401A7D
:101BF0000199884218D9FFE702980068006800F050
:101C0000020002280FD0FFE70299086C40F00400A0
:101C10000864FFE70299002081F83C00FFE70320F9
:101C20008DF80F003BE0FFE7FFE7CEE70298016881
:101C30006FF0120008600299086C40F400700864AC
:101C400002980068806810F0405F24D1FFE7029896
:101C5000007E00BBFFE702980068C06A10F4700FB6
:101C600007D0FFE70298006880684005002812D47A
:101C7000FFE70299086C20F4807008640298006CF9
:101C8000C004002806D4FFE70299086C40F0010068
:101C90000864FFE7FFE700208DF80F00FFE79DF8DD
:101CA0000F0004B080BD000084B0029000200190BD
:101CB000FFE7029890F83C00012804D1FFE70220DA
:101CC0008DF80F00D4E00299012081F83C00FFE775
:101CD000FFE7029800688068C007F0B9FFE7029844
:101CE0000168886840F00100886040F20000C2F29C
:101CF000000000684DF68361C4F21B31A0FB0110A7
:101D0000800C00EB40000190FFE7019820B1FFE755
:101D1000019801380190F8E7FFE7029800688068B1
:101D2000C007002800F09580FFE70298006C40F49F
:101D3000807040F20161884302990864029800684B
:101D400040684005002809D5FFE70298006C40F480
:101D5000805020F4005002990864FFE70298006C5C
:101D6000C004002806D5FFE70299486C20F0060061
:101D7000486403E0029900204864FFE7FFE7029906
:101D8000002081F83C00FFE742F20030C4F201007D
:101D90000090029801686FF0220008600098406887
:101DA000C006E8BBFFE70298006842F20001C4F2F7
:101DB0000101884224D0FFE70298006842F2001136
:101DC000C4F20101884208D1FFE742F20430C4F2B4
:101DD00001000068C00698B1FFE70298006842F26F
:101DE0000021C4F20101884219D1FFE742F2043018
:101DF000C4F20100006800F01F000F280FD8FFE7B1
:101E000002980068806810F0405F07D1FFE70298F1
:101E10000168886840F080408860FFE7FFE717E0CE
:101E20000298006842F20001C4F2010188420ED11A
:101E3000FFE702980068806810F0405F07D1FFE775
:101E400002980168886840F080408860FFE7FFE7FB
:101E50000AE00299086C40F0100008640299486C8E
:101E600040F001004864FFE700208DF80F00FFE715
:101E70009DF80F0004B0704780B584B0039000F067
:101E8000F9F90290039801900198013048B1FFE7F9
:101E900040F20400C2F20000017801980844019069
:101EA000FFE7FFE700F0E6F90299401A019988423E
:101EB00001D2FFE7F6E704B080BD00008EB00D90C0
:101EC0000C9100200A90099008900B90FFE70B9866
:101ED0000F2800F2CC81FFE70B99012088400A907F
:101EE0000C9800680A990840099009980A99884254
:101EF00040F0B881FFE70C98406800F0030001282B
:101F000007D0FFE70C98406800F0030002282FD1AB
:101F1000FFE70D98806808900B984100032000FAB5
:101F200001F10898884308900C98C0680B99490003
:101F300000FA01F108980843089008980D99886004
:101F40000D98406808900B99012000FA01F108985B
:101F5000884308900C984068C0F300100B9900FA71
:101F600001F108980843089008980D994860FFE728
:101F70000C98406800F00300032818D0FFE70D9884
:101F8000C06808900B984100032000FA01F10898FE
:101F9000884308900C9880680B99490000FA01F179
:101FA00008980843089008980D99C860FFE70C98B6
:101FB000406800F00300022826D1FFE70D980B9936
:101FC0006FF0030202EA51010844006A08900B987E
:101FD00000F0070081000F2000FA01F10898884303
:101FE00008900C9800690B9901F00701890000FA2C
:101FF00001F108980843089008980D990B9B02EA94
:10200000530211440862FFE70D98006808900B988E
:102010004100032000FA01F10898884308900C98C9
:10202000406800F003000B99490000FA01F108989C
:102030000843089008980D9908600C9880798007EB
:10204000002800F00E81FFE7FFE70020079043F62D
:102050004400C4F20200016841F48041016000685C
:1020600000F4804007900798FFE70B9820F00300EA
:1020700043F60801C4F20101405808900B9800F0A3
:10208000030081000F2000FA01F1089888430890AE
:102090000D980021C4F20201884203D1FFE700201D
:1020A00006905EE00D9840F20041C4F202018842C1
:1020B00003D1FFE70120059050E00D9840F60001A4
:1020C000C4F20201884203D1FFE70220049042E0FB
:1020D0000D9840F60041C4F20201884203D1FFE7A7
:1020E0000320039034E00D9841F20001C4F2020194
:1020F000884203D1FFE70420029026E00D9841F2C8
:102100000041C4F20201884203D1FFE7052001909B
:1021100018E00D9841F60001C4F20201884203D193
:10212000FFE7062000900AE00D9941F60042C4F254
:1021300002020820914208BF07200090FFE70098A4
:102140000190FFE701980290FFE702980390FFE7F4
:1021500003980490FFE704980590FFE70598069020
:10216000FFE70698C0B20B9901F00301890000FA5D
:1021700001F108980843089008980B9921F0030191
:1021800043F60802C4F20102885043F60840C4F244
:1021900001000068089009990898884308900C98F5
:1021A0008079C006002805D5FFE7099908980843FB
:1021B0000890FFE7089843F60841C4F2010108605F
:1021C00043F60C40C4F20100006808900999089891
:1021D000884308900C9880798006002805D5FFE791
:1021E0000999089808430890FFE7089843F60C41BE
:1021F000C4F20101086043F60440C4F20100006823
:10220000089009990898884308900C98807980076D
:10221000002805D5FFE70999089808430890FFE7CB
:10222000089843F60441C4F20101086043F60040F7
:10223000C4F2010000680890099908988843089042
:102240000C988079C00728B1FFE7099908980843DE
:102250000890FFE7089843F60041C4F201010860C6
:10226000FFE7FFE7FFE70B9801300B902FE60EB07A
:102270007047000040F29420C2F2000000687047EE
:1022800080B58EB00C900C9820B9FFE701208DF836
:10229000370043E10C9890F83D0040B9FFE70C99F6
:1022A000002081F83C000C9800F086FBFFE70C99B9
:1022B000242081F83D000C980168086820F0010096
:1022C00008600C980168086840F4004008600C98A9
:1022D0000168086820F40040086000F0D7FD0A900B
:1022E0000C98406848F2A061C0F2010188420BD806
:1022F000FFE70A9948F28042C0F21E020020914294
:1023000038BF012009900AE00A9940F60012C0F295
:102310003D020020914238BF01200990FFE7099853
:10232000012804D1FFE701208DF83700F6E00A9874
:102330004DF68361C4F21B31A0FB0110800C0B90A1
:102340000C980068406820F03F000B9908430C99F6
:10235000096848600C980068006A20F03F00089007
:102360000C98406848F2A061C0F20101884204D88C
:10237000FFE70B98013007900EE00B984FF4967131
:10238000484344F6D351C1F26201A0FB0101012090
:1023900000EB91100790FFE70898079908430C9904
:1023A000096808620C980068C0694CF6FF718843A0
:1023B00006900C98406848F2A061C0F20101884282
:1023C0001FD8FFE70A9801380C9949684900B0FB0B
:1023D000F1F001306FF31F30032803D8FFE704202A
:1023E00005900BE00A9801380C9949684900B0FB48
:1023F000F1F001306FF31F300590FFE7059804906E
:102400004CE00C98806868B9FFE70A9801380C998D
:10241000496801EB4101B0FBF1F001306FF31F306F
:1024200003900DE00A9801380C994968192251432C
:10243000B0FBF1F00130042161F31F300390FFE79E
:102440000398000518B9FFE70120029023E00C98DB
:10245000806868B9FFE70A9801380C99496801EB70
:102460004101B0FBF1F001306FF31F3001900DE03E
:102470000A9801380C99496819225143B0FBF1F0D0
:102480000130042161F31F300190FFE7019840F40F
:1024900000400290FFE702980490FFE70698049935
:1024A00008430C990968C8610C980068006820F01E
:1024B000C0000C9B1968DA691B6A1A431043086054
:1024C0000C980068806848F2FF3188430C9A1168C4
:1024D000D36812691A43104388600C980068C0687A
:1024E00020F0FF000C9B19685A699B691A4310433E
:1024F000C8600C980168086840F0010008600C99F9
:10250000002008640C9A202182F83D100C99086381
:102510000C9981F83E008DF83700FFE79DF83700F1
:102520000EB080BD80B58CB00A90ADF82610089230
:102530000793FFF79FFE0690002005900A9890F8F9
:102540003D00202840F02B81FFE70A9806996A4653
:1025500011600221C0F210010122192301F09EFC3A
:1025600020B1FFE702208DF82F001CE1FFE70A9859
:1025700090F83C00012804D1FFE702208DF82F00DD
:1025800011E10A99012081F83C00FFE7FFE70A9872
:1025900000680068C00738B9FFE70A980168086852
:1025A00040F001000860FFE70A980168086820F41D
:1025B000006008600A99242081F83D000A990020F3
:1025C00008640A990020CFF6FF70C862FFE70A98F6
:1025D0000168086840F4807008600A98079B0699B3
:1025E0006A4611604FF00111002201F057FC80B1E2
:1025F000FFE70A9800680068C005002805D5FFE7D6
:102600000A994FF400700864FFE703208DF82F004B
:10261000C9E0BDF8260000F0FE000A9909680861CB
:10262000FFF728FE06900A9800684069C0F3400052
:102630008DF813000A9800684069C0F380208DF877
:102640001200FFE70A9890F83D100020A0290290A0
:102650000DD0FFE79DF813100020029039B9FFE775
:102660009DF81200B0FA80F040090290FFE702984E
:10267000C007F8B1FFE7FFF7FDFD0699401A07997B
:10268000884203D8FFE7079828B9FFE70A99A020F6
:1026900081F83D00FFE70A9800684069C0F34000F8
:1026A0008DF813000A9800684069C0F380208DF807
:1026B0001200C7E70A99202081F83D000A980068B7
:1026C000406900F002010120B0EB510F32D1FFE769
:1026D0000A980168086840F400700860FFE700206D
:1026E00003900A980068406903900A98006880691E
:1026F00003900398FFE70A9806996A461160022141
:10270000C0F210010122192301F0C8FB20B1FFE73C
:1027100001208DF82F0046E00A99202081F83D0025
:10272000FFE70A99002081F83C00FFE700208DF8C0
:102730002F0038E00A980168086840F400700860CB
:102740000A9801686FF4806048610A9806996A46A1
:1027500011600221C0F210010122192301F09EFB39
:1027600020B1FFE701208DF82F001CE0FFE705985E
:1027700001300590FFE7059808998842FFF427AFDC
:10278000FFE70A99202081F83D00FFE70A99002021
:1027900081F83C00FFE701208DF82F0003E00220C4
:1027A0008DF82F00FFE79DF82F000CB080BD0000D2
:1027B00080B588B0DDF828C00690ADF816100492F8
:1027C000ADF80E30FFF756FD0290069890F83D00E8
:1027D000202840F0E980FFE7069802996A461160D8
:1027E0000221C0F210010122192301F057FB20B190
:1027F000FFE702208DF81F00DAE0FFE7069890F867
:102800003C00012804D1FFE702208DF81F00CFE033
:102810000699012081F83C00FFE7FFE70698006871
:102820000068C00738B9FFE706980168086840F0FB
:1028300001000860FFE706980168086820F400605E
:1028400008600699212081F83D000699102081F842
:102850003E00069900200864049806994862BDF875
:102860000E00069948850698408D069908850699B8
:102870000020CFF6FF70C8620698BDF816100A9ABD
:10288000029B01F035FA20B1FFE701208DF81F000F
:102890008EE0FFE7002001900698006840690190F3
:1028A00006980068806901900198FFE7FFE70698A5
:1028B000008D002860D0FFE706980A99029A01F07F
:1028C000D5FB80B1FFE70698006C042807D1FFE72D
:1028D00006980168086840F400700860FFE701206E
:1028E0008DF81F0064E006980168406A007808616E
:1028F0000699486A013048620699488D0138488532
:102900000699088D0138088506980068406900F02E
:1029100004010120B0EB910F16D1FFE70698008D5E
:1029200090B1FFE706980168406A0078086106994F
:10293000486A013048620699488D013848850699F1
:10294000088D01380885FFE706980A99029A01F078
:1029500059FA80B1FFE70698006C042807D1FFE719
:1029600006980168086840F400700860FFE70120DD
:102970008DF81F001CE09AE706980168086840F48B
:10298000007008600699202081F83D00069900201B
:1029900081F83E00FFE70699002081F83C00FFE740
:1029A00000208DF81F0003E002208DF81F00FFE7D4
:1029B0009DF81F0008B080BD80B58AB00990002046
:1029C000089007900690059004900998006845F2D9
:1029D0000041C4F20001884234D1FFE7FFE7002044
:1029E000039043F63000C4F20200016841F0020196
:1029F0000160006800F0020003900398FFE7C02028
:102A000004901220059000200690032007900420D7
:102A1000089040F20040C4F2020004A9FFF74EFA09
:102A2000FFE70020029043F64000C4F20200016874
:102A300041F400110160006800F400100290029857
:102A4000FFE73EE00998006845F60001C4F2000186
:102A5000884235D1FFE7FFE70020019043F63000C0
:102A6000C4F20200016841F002010160006800F058
:102A7000020001900198FFE74FF44060049012209B
:102A8000059000200690032007900420089040F253
:102A90000040C4F2020004A9FFF710FAFFE700208B
:102AA000009043F64000C4F20200016841F4800146
:102AB0000160006800F4800000900098FFE7FFE7E5
:102AC000FFE70AB080BD000040F20400C2F200003F
:102AD000027840F29421C2F20001086810440860B4
:102AE0007047000080B543F60041C4F20201086857
:102AF00040F400700860086840F48060086008686E
:102B000040F480700860032000F080F80F2000F08F
:102B100005F800F03BF8002080BD000080B582B0D1
:102B2000009040F20000C2F20000006840F2040190
:102B3000C2F200010A784FF47A71B1FBF2F1B0FBF6
:102B4000F1F000F0B5FD20B1FFE701208DF807009E
:102B500018E000980F280DD8FFE700994FF0FF30DC
:102B6000002200F039F8009840F20801C2F200019A
:102B7000086003E001208DF8070003E000208DF8D5
:102B80000700FFE79DF8070002B080BD82B0FFE7B5
:102B90000020019043F64400C4F20200016841F4B1
:102BA00080410160006800F4804001900198FFE7D7
:102BB000FFE70020009043F64000C4F202000168E5
:102BC00041F080510160006800F080500090009852
:102BD000FFE702B07047000080B586B08DF817009F
:102BE000049103920020029001F060FF02909DF991
:102BF0001700019002980499039A01F07FFD0146A5
:102C0000019801F05BFF06B080BD000080B582B086
:102C10000190019801F074FF02B080BD80B584B0CE
:102C200002900191029820B9FFE701208DF80F0072
:102C300021E1019843F60041C4F20201096801F064
:102C40000701884212D9FFE7019943F60040C4F218
:102C500002000170006800F007000199884204D06A
:102C6000FFE701208DF80F0005E1FFE702980078EB
:102C7000800700282AD5FFE702980078400700283F
:102C800009D5FFE743F60801C4F20201086840F4E1
:102C9000E0500860FFE7029800780007002809D597
:102CA000FFE743F60801C4F20201086840F46040FF
:102CB0000860FFE743F60801C4F20201086820F04B
:102CC000F000029A926810430860FFE702980078CB
:102CD000C00700286ED0FFE702984068012811D194
:102CE000FFE743F60000C4F20200006800F4003180
:102CF0000020B0EB514F04D1FFE701208DF80F0009
:102D0000B9E02CE002984068022805D0FFE702985D
:102D10004068032811D1FFE743F60000C4F2020027
:102D2000006800F000710020B0EB516F04D1FFE7A4
:102D300001208DF80F009EE010E043F60000C4F281
:102D40000200006800F002010020B0EB510F04D136
:102D5000FFE701208DF80F008DE0FFE7FFE743F666
:102D60000801C4F20201086820F00300029A5268C8
:102D700010430860FFF77EFA0090FFE743F6080073
:102D8000C4F20200006800F00C0002994968B0EB40
:102D9000810F0ED0FFE7FFF76DFA0099401A41F25C
:102DA0008931884204D3FFE703208DF80F0062E0E9
:102DB000E4E7FFE7019843F60041C4F20201096825
:102DC00001F00701884212D2FFE7019943F6004063
:102DD000C4F202000170006800F007000199884207
:102DE00004D0FFE701208DF80F0044E0FFE70298D0
:102DF0000078400700280CD5FFE743F60801C4F22D
:102E00000201086820F4E050029AD268104308607A
:102E1000FFE702980078000700280DD5FFE743F68A
:102E20000801C4F20201086820F46040029A1269A5
:102E300040EAC2000860FFE700F04CF843F60801E2
:102E4000C4F202010968C9B20A0945F68451C0F604
:102E50000001895CC84040F20001C2F20001086034
:102E600040F20800C2F200000068FFF757FE0020A1
:102E70008DF80F00FFE79DF80F0004B080BD000043
:102E800040F20000C2F200000068704780B5FFF712
:102E9000F7FF43F60801C4F202010968C1F3822278
:102EA00045F69451C0F60001895CC84080BD000021
:102EB00080B5FFF7E5FF43F60801C4F20201096897
:102EC00089B24A0B45F69451C0F60001895CC840AE
:102ED00080BD000080B586B000200590049003906E
:102EE000029043F60800C4F20200006800F00C00F3
:102EF0000146019140B1FFE7019804280AD0FFE79D
:102F0000019808280CD04FE042F20040C0F2F400D3
:102F100002904FE041F20020C0F27A00029049E0B6
:102F200043F60400C4F20200016801F03F0105917C
:102F300000684002002813D5FFE743F60400C4F2FE
:102F400002000068C0F3881041F20021C0F27A014B
:102F5000A0FB0101059A0023FDF7DCF9049012E0C3
:102F600043F60400C4F202000068C0F3881042F285
:102F70000041C0F2F401A0FB0101059A0023FDF716
:102F8000C9F90490FFE743F60400C4F202000068A8
:102F900000F44031022000EBD130039004980399F3
:102FA000B0FBF1F0029005E042F20040C0F2F40004
:102FB0000290FFE7029806B080BD000080B586B0A1
:102FC0000490049820B9FFE701208DF8170050E322
:102FD00004980078C007002800F0A580FFE743F6BA
:102FE0000800C4F20200006800F00C00042813D0AE
:102FF000FFE743F60800C4F20200006800F00C008E
:1030000008281ED1FFE743F60400C4F2020000685E
:103010004002002815D5FFE743F60000C4F2020085
:10302000006800F400310020B0EB514F08D0FFE7FA
:103030000498406820B9FFE701208DF8170018E3D5
:1030400070E0FFE704984068B0F5803F09D1FFE7E2
:1030500043F60001C4F20201086840F480300860C1
:1030600020E004984068B0F5A02F0DD1FFE743F6AB
:103070000001C4F20201086840F48020086008687A
:1030800040F4803008600CE043F60001C4F2020115
:10309000086820F480300860086820F48020086008
:1030A000FFE7FFE7FFE704984068E8B1FFE7FFF7B5
:1030B000E1F80390FFE743F60000C4F20200006865
:1030C00000F400310020B0EB514F0CD1FFE7FFF7C7
:1030D000D1F80399401A652804D3FFE703208DF83F
:1030E0001700C6E2E7E71CE0FFF7C4F80390FFE72C
:1030F00043F60000C4F20200006800F40031002032
:10310000B0EB514F0CD0FFE7FFF7B4F80399401A2A
:10311000652804D3FFE703208DF81700A9E2E7E74D
:10312000FFE7FFE7FFE7049800788007002840F1F9
:103130009680FFE743F60800C4F20200006810F032
:103140000C0F13D0FFE743F60800C4F2020000683A
:1031500000F00C0008282CD1FFE743F60400C4F26D
:10316000020000684002002823D4FFE743F6000075
:10317000C4F20200006800F002010020B0EB510F21
:1031800009D0FFE70498C068012804D0FFE70120B8
:103190008DF817006DE243F60001C4F202010868E1
:1031A00020F0F800049A126940EAC2000860FFE7C4
:1031B00054E00498C06870B3FFE70021C4F24721CF
:1031C00001200860FFF756F80390FFE743F6000080
:1031D000C4F20200006800F002010020B0EB510FC1
:1031E0000CD1FFE7FFF746F80399401A032804D3F0
:1031F000FFE703208DF817003BE2E7E743F6000105
:10320000C4F20201086820F0F800049A126940EA4A
:10321000C200086021E00021C4F2472100200860BC
:10322000FFF728F80390FFE743F60000C4F202001E
:10323000006800F002010020B0EB510F0CD0FFE756
:10324000FFF718F80399401A032804D3FFE7032077
:103250008DF817000DE2E7E7FFE7FFE7FFE70498C7
:103260000078000700284BD5FFE70498406918B3A1
:10327000FFE740F68061C4F2472101200860FEF7B5
:10328000F9FF0390FFE743F67400C4F20200006800
:1032900000F002010020B0EB510F0CD1FFE7FEF768
:1032A000E9FF0399401A032804D3FFE703208DF8B0
:1032B0001700DEE1E7E722E040F68061C4F2472133
:1032C00000200860FEF7D6FF0390FFE743F6740086
:1032D000C4F20200006800F002010020B0EB510FC0
:1032E0000CD0FFE7FEF7C6FF0399401A032804D36A
:1032F000FFE703208DF81700BBE1E7E7FFE7FFE7F3
:10330000049800784007002840F1CE80FFE70020B5
:103310008DF8070043F64000C4F202000068C000C8
:10332000002815D4FFE7FFE70020009043F6400097
:10333000C4F20200016841F080510160006800F0B1
:10334000805000900098FFE701208DF80700FFE70C
:1033500047F20000C4F200000068C005002822D433
:10336000FFE747F20001C4F20001086840F48070F2
:103370000860FEF77FFF0390FFE747F20000C4F20A
:1033800000000068C00500280CD4FFE7FEF772FFBC
:103390000399401A032804D3FFE703208DF8170090
:1033A00067E1EAE7FFE7FFE704988068012809D1B1
:1033B000FFE743F67001C4F20201086840F0010023
:1033C00008601FE00498806805280DD1FFE743F6E8
:1033D0007001C4F20201086840F004000860086847
:1033E00040F0010008600CE043F67001C4F20201F5
:1033F000086820F001000860086820F004000860F8
:10340000FFE7FFE7FFE704988068F8B1FFE7FEF702
:1034100031FF0390FFE743F67000C4F2020000683A
:1034200000F002010020B0EB510F0ED1FFE7FEF7D4
:1034300021FF0399401A41F28931884204D3FFE702
:1034400003208DF8170014E1E5E71EE0FEF712FFF8
:103450000390FFE743F67000C4F20200006800F03A
:1034600002010020B0EB510F0ED0FFE7FEF702FF84
:103470000399401A41F28931884204D3FFE70320BF
:103480008DF81700F5E0E5E7FFE79DF80700012854
:1034900009D1FFE743F64001C4F20201086820F0B9
:1034A00080500860FFE7FFE704988069002800F07B
:1034B000DC80FFE743F60800C4F20200006800F079
:1034C0000C00082800F08580FFE704988069022836
:1034D0005CD1FFE76021C4F2472100200860FEF7BD
:1034E000C9FE0390FFE743F60000C4F20200006843
:1034F00000F000710020B0EB516F0CD0FFE7FEF739
:10350000B9FE0399401A032804D3FFE703208DF87E
:103510001700AEE0E7E70499C869D1F820C04B6A0C
:103520008A6A40EA0C0040EA8310D2034FF6FF7328
:103530009A43A2F580321043C96A40EA016043F61B
:103540000401C4F2020108606021C4F24721012095
:103550000860FEF78FFE0390FFE743F60000C4F219
:103560000200006800F000710020B0EB516F0CD138
:10357000FFE7FEF77FFE0399401A032804D3FFE715
:1035800003208DF8170074E0E7E721E06021C4F222
:10359000472100200860FEF76DFE0390FFE743F629
:1035A0000000C4F20200006800F000710020B0EBDF
:1035B000516F0CD0FFE7FEF75DFE0399401A032818
:1035C00004D3FFE703208DF8170052E0E7E7FFE799
:1035D0004AE004988069012804D1FFE701208DF8B2
:1035E000170046E043F60400C4F2020000680290AF
:1035F00004988069012831D0FFE7029800F4800028
:103600000499C969884229D1FFE7029800F03F0078
:103610000499096A884221D1FFE7029847F6C071F0
:1036200008400499496AB0EB811F17D1FFE702985F
:1036300000F440300499896AC9034FF6FF72914340
:10364000A1F58031884209D1FFE7029800F070604F
:103650000499C96AB0EB016F04D0FFE701208DF82F
:10366000170006E0FFE7FFE7FFE700208DF81700EF
:10367000FFE79DF8170006B080BD000081B0009004
:103680000098042809D1FFE74EF21001CEF20001A4
:10369000086840F00400086008E04EF21001CEF225
:1036A0000001086820F004000860FFE701B07047DF
:1036B00080B582B00190019801F05AF802B080BD47
:1036C00080B582B00090009820B9FFE701208DF806
:1036D00007003EE00098806908B1FFE700E0FFE7DF
:1036E000009890F83D0040B9FFE70099002081F86C
:1036F0003C00009800F032F8FFE70099242081F8A0
:103700003D0000980168C86820F40050C860009827
:1037100001F0C2F800980168086920F4904008613F
:1037200000980168486920F02A0048610098016803
:10373000C86840F40050C860009900200864009AEE
:10374000202182F83D10009A82F83E108DF8070083
:10375000FFE79DF8070002B080BD000080B596B07D
:1037600015900020149013901290119010901598BD
:10377000006844F60041C4F2000188425ED1FFE7D0
:10378000FFE700200F9043F64000C4F202000168FA
:1037900041F400210160006800F400200F900F98B0
:1037A000FFE7FFE700200E9043F63000C4F202006E
:1037B000016841F001010160006800F001000E9015
:1037C0000E98FFE7FFE700200D9043F63000C4F2AB
:1037D0000200016841F004010160006800F004008B
:1037E0000D900D98FFE70120109002200590119098
:1037F0000020069012900320079013900820089054
:1038000014900020C4F2020010A90991FEF756FBA3
:10381000DDF814C0069B079A089809994FF4006ECA
:10382000CDF840E0CDF844C012931392149040F6C6
:103830000000C4F20200FEF741FB69E01598006841
:1038400045F20001C4F20001884260D1FFE7FFE7C2
:1038500000200C9043F64000C4F20200016841F4DD
:1038600080110160006800F480100C900C98FFE754
:10387000FFE700200B9043F63000C4F2020001681D
:1038800041F004010160006800F004000B900B9807
:10389000FFE7FFE700200A9043F63000C4F2020081
:1038A000016841F008010160006800F008000A901A
:1038B0000A98FFE74FF4805010900220009011907A
:1038C0000020019012900320029013900820039092
:1038D000149040F60000C4F2020010A90491FEF713
:1038E000EDFADDF800C0019B029A039804994FF0AD
:1038F000040ECDF840E0CDF844C01293139214901A
:1039000040F60040C4F20200FEF7D8FAFFE7FFE7F6
:1039100016B080BD80B58AB008900791ADF81A2026
:10392000059300200290089890F83E00202840F06F
:103930009B80FFE7079820B1FFE7BDF81A0020B988
:10394000FFE701208DF8270092E0FFE7089890F844
:103950003C00012804D1FFE702208DF8270087E012
:103960000899012081F83C00FFE7FFE70899002053
:103970000864089A222182F83E1008990863FEF72D
:1039800079FC0290BDF81A0008998885BDF81A00E4
:103990000899C88508988068B0F5805F09D1FFE76D
:1039A0000898006928B9FFE7002004900798039061
:1039B00004E00798049000200390FFE7FFE70899D0
:1039C000002081F83C00FFE7FFE70898C08D002841
:1039D00042D0FFE70898029B05996A4611602021B2
:1039E000002200F0F7FF20B1FFE703208DF8270049
:1039F0003EE0049858B9FFE70898006840686FF304
:103A00005F20039908800398023003901FE0089814
:103A10008068B0F5805F08D0FFE70898806850B9EB
:103A2000FFE70898006930B9FFE708980068406828
:103A30000499087007E008980068406800F07F006B
:103A400004990870FFE7049801300490FFE7089993
:103A5000C88D0138C885B8E70899202081F83E0054
:103A600000208DF8270003E002208DF82700FFE7F3
:103A70009DF827000AB080BD80B58AB008900791F4
:103A8000ADF81A20059300200290089890F83D00A8
:103A9000202840F09080FFE7079820B1FFE7BDF8AD
:103AA0001A0020B9FFE701208DF8270087E0FFE723
:103AB000089890F83C00012804D1FFE702208DF817
:103AC00027007CE00899012081F83C00FFE7FFE730
:103AD0000899002008640899212081F83D00FEF72C
:103AE000C9FB0290BDF81A0008998884BDF81A0035
:103AF0000899C88408988068B0F5805F09D1FFE70D
:103B00000898006928B9FFE70020049007980390FF
:103B100004E00798049000200390FFE7FFE708996E
:103B2000002081F83C00FFE7FFE70898C08C58B3FD
:103B3000FFE70898029B05996A46116080210022E0
:103B400000F048FF20B1FFE703208DF8270036E0A2
:103B5000049858B9FFE7039800886FF35F2008992D
:103B60000968486003980230039008E004980078E0
:103B7000089909684860049801300490FFE70899A3
:103B8000C88C0138C884D0E70898029B05996A461A
:103B900011604021002200F01DFF20B1FFE703204B
:103BA0008DF827000BE00899202081F83D000020C7
:103BB0008DF8270003E002208DF82700FFE79DF82D
:103BC00027000AB080BD0000FFE7FEE780B582B0A5
:103BD000FFE70020019043F64000C4F202000168B4
:103BE00041F400110160006800F400100190019898
:103BF000FFE740F2EC10C2F2000045F20041C4F2CF
:103C0000000101604FF48041016148F2A061C0F2FF
:103C100001014160002141618160C1610162C160B7
:103C20008161FEF72DFB02B080BD000080B582B03F
:103C3000FFE70020019043F64000C4F20200016853
:103C400041F480010160006800F480000190019857
:103C5000FFE740F24020C2F2000045F60001C4F246
:103C6000000101604FF48041016148F2A061C0F29F
:103C700001014160002141618160C1610162C16057
:103C80008161FEF7FDFA02B080BD000082B00090B5
:103C900000980068406900F480610120B0EB912F2A
:103CA0001ED1FFE7009801686FF4806048610099B9
:103CB00000200863009A202182F83D10009981F8C5
:103CC0003E000099086C40F004000864FFE700998A
:103CD000002081F83C00FFE701208DF8070003E099
:103CE00000208DF80700FFE79DF8070002B070473D
:103CF00080B588B00690ADF816100492039306982C
:103D0000C06A02900298082809D0FFE702980128AB
:103D100005D0FFE7029810F5803F07D1FFE706982E
:103D20000168086840F4807008600DE00698006B38
:103D3000122807D1FFE706980168086840F48070F0
:103D4000086000E0FFE7FFE70698049B03996A46D6
:103D500011604FF00111002200F0A0F880B1FFE7E0
:103D6000069800680068C005002805D5FFE7069999
:103D70004FF400700864FFE703208DF81F003CE05B
:103D800006980069B0F5804F08D1FFE7BDF816002E
:103D900000F0FE000699096808611CE0BDF81600F5
:103DA00000F44070C009F03006990968086106986F
:103DB000049A039B0821C0F2010100F0CFF820B162
:103DC000FFE701208DF81F0017E09DF81600069907
:103DD00009680861FFE70698049A039B0221C0F274
:103DE000010100F0BBF820B1FFE701208DF81F00B2
:103DF00003E000208DF81F00FFE79DF81F0008B0CA
:103E000080BD000080B584B0029001910092FFE770
:103E100002980068406900F004010020B0EB910FA7
:103E200033D1FFE70298FFF731FF20B1FFE7012010
:103E30008DF80F002DE00198013028B3FFE7FEF761
:103E400019FA0099401A0199884203D8FFE70198AE
:103E5000C8B9FFE7029900200863029A202182F87E
:103E60003D10029981F83E000299086C40F0200054
:103E70000864FFE70299002081F83C00FFE7012079
:103E80008DF80F0005E0FFE7C2E700208DF80F0076
:103E9000FFE79DF80F0004B080BD000080B586B03C
:103EA000DDF820C0049003918DF80B200193FFE70B
:103EB0009DF80E0001280CD1FFE7049800684069C6
:103EC000BDF80C100840401AB0FA80F0400900908C
:103ED0000BE0049800688069BDF80C100840401A97
:103EE000B0FA80F040090090FFE700989DF80B10B1
:103EF00088422AD1FFE70198013028B3FFE7FEF797
:103F0000B9F90899401A0199884203D8FFE7019846
:103F1000C8B9FFE7049900200863049A202182F8B9
:103F20003D10049981F83E000499086C40F020008F
:103F30000864FFE70499002081F83C00FFE70120B6
:103F40008DF8170005E0FFE7B2E700208DF81700B5
:103F5000FFE79DF8170006B080BD000080B586B071
:103F60000490039102920193FFE79DF80E0001284F
:103F70000CD1FFE7049800684069BDF80C100840B8
:103F8000401AB0FA80F0400900900BE004980068F5
:103F90008069BDF80C100840401AB0FA80F0400962
:103FA0000090FFE70098002858D1FFE704980068C8
:103FB000406900F480610120B0EB912F24D1FFE72C
:103FC00004980168086840F400700860049801686B
:103FD0006FF480604861049900200863049A2021EE
:103FE00082F83D10049981F83E000499086C40F075
:103FF00004000864FFE70499002081F83C00FFE713
:1040000001208DF817002DE00298013028B3FFE75A
:10401000FEF730F90199401A0299884203D8FFE768
:104020000298C8B9FFE7049900200863049A202188
:1040300082F83D10049981F83E000499086C40F024
:1040400020000864FFE70499002081F83C00FFE7A6
:1040500001208DF8170005E0FFE786E700208DF8C6
:104060001700FFE79DF8170006B080BD80B584B04B
:10407000029001910092FFE7029800684069C1B286
:104080000020B0EBD11F33D1FFE70298FFF7FEFD10
:1040900020B1FFE701208DF80F002DE001980130DD
:1040A00028B3FFE7FEF7E6F80099401A0199884225
:1040B00003D8FFE70198C8B9FFE702990020086319
:1040C000029A202182F83D10029981F83E0002995F
:1040D000086C40F020000864FFE70299002081F896
:1040E0003C00FFE701208DF80F0005E0FFE7C3E784
:1040F00000208DF80F00FFE79DF80F0004B080BD91
:1041000080B5FDF7F5FAFFF761FD0F20FDF7B4FE6E
:10411000332000F02DF8322000F02AF8282000F09B
:1041200027F80C2000F024F8802000F021F801206E
:1041300000F01EF880BD000080B5FDF725FBFFF7FD
:1041400075FD0F20FDF798FE332000F073F8322044
:1041500000F070F8282000F06DF80C2000F06AF8EC
:10416000802000F067F8012000F064F880BD0000B6
:1041700080B584B08DF80F009DF80F0000F0F000BE
:104180008DF80E009DF80F0000018DF80D009DF8D0
:104190000E0040F00C008DF80B009DF80E0040F072
:1041A00008008DF80C009DF80D0040F00C008DF813
:1041B00009009DF80D0040F008008DF80A0040F25B
:1041C000EC10C2F200004E2101220A23FEF7AAF9E8
:1041D00070B9FFE769466420086040F2EC10C2F253
:1041E00000004E210DF10B020223FEF7E1FAFFE77A
:1041F0000520FDF741FE40F2EC10C2F200004E2116
:1042000001220A23FEF78EF970B9FFE769466420A0
:10421000086040F2EC10C2F200004E210DF10902DC
:104220000223FEF7C5FAFFE70520FDF725FE04B0DF
:1042300080BD000080B584B08DF80F009DF80F00A0
:1042400000F0F0008DF80E009DF80F0000018DF8D1
:104250000D009DF80E0040F00C008DF80B009DF84D
:104260000E0040F008008DF80C009DF80D0040F0A5
:104270000C008DF809009DF80D0040F008008DF845
:104280000A0040F24020C2F200004E2101220A231F
:10429000FEF748F970B9FFE769466420086040F20C
:1042A0004020C2F200004E210DF10B020223FEF766
:1042B0007FFAFFE70520FDF7DFFD40F24020C2F264
:1042C00000004E2101220A23FEF72CF970B9FFE706
:1042D00069466420086040F24020C2F200004E218E
:1042E0000DF109020223FEF763FAFFE70520FDF74F
:1042F000C3FD04B080BD000080B584B08DF80F0010
:104300009DF80F0000F0F0008DF80E009DF80F00F2
:1043100000018DF80D009DF80E0040F00D008DF8A5
:104320000B009DF80E0040F009008DF80C009DF880
:104330000D0040F00D008DF809009DF80D0040F0D3
:1043400009008DF80A0040F2EC10C2F200004E2184
:1043500001220A23FEF7E6F870B9FFE769466420F8
:10436000086040F2EC10C2F200004E210DF10B0289
:104370000223FEF71DFAFFE740F2EC10C2F2000044
:104380004E2101220A23FEF7CDF870B9FFE76946F6
:104390006420086040F2EC10C2F200004E210DF1E2
:1043A00009020223FEF704FAFFE70520FDF764FD8A
:1043B00004B080BD80B584B08DF80F009DF80F006B
:1043C00000F0F0008DF80E009DF80F0000018DF850
:1043D0000D009DF80E0040F00D008DF80B009DF8CB
:1043E0000E0040F009008DF80C009DF80D0040F023
:1043F0000D008DF809009DF80D0040F009008DF8C2
:104400000A0040F24020C2F200004E2101220A239D
:10441000FEF788F870B9FFE769466420086040F24B
:104420004020C2F200004E210DF10B020223FEF7E4
:10443000BFF9FFE740F24020C2F200004E21012206
:104440000A23FEF76FF870B9FFE769466420086039
:1044500040F24020C2F200004E210DF10902022379
:10446000FEF7A6F9FFE70520FDF706FD04B080BDC5
:1044700080B582B00190FFE70198007838B1FFE77E
:104480000198411C01910078FFF736FFF4E702B074
:1044900080BD000080B582B00190FFE701980078F0
:1044A00038B1FFE70198411C01910078FFF782FFC6
:1044B000F4E702B080BD000080B586B00022009213
:1044C000059204920392029240F27000C2F2000040
:1044D000019042F20001C4F2010101604260826079
:1044E0000261027680F82020C2620121C0F60071CC
:1044F0008162C2600121C16180F830204161FDF715
:10450000A5FA18B1FFE7FDF7EBF8FFE701200290ED
:1045100003900020049040F27000C2F2000002A953
:10452000FDF780F918B1FFE7FDF7DAF8FFE706B00D
:1045300080BD000085B0FFE70020049043F6300006
:10454000C4F20200016841F080010160006800F0DF
:10455000800004900498FFE7FFE70020039043F6F3
:104560003000C4F20200016841F0010101600068FE
:1045700000F0010003900398FFE7FFE7002002909E
:1045800043F63000C4F20200016841F0020101600C
:10459000006800F0020002900298FFE7FFE70020A9
:1045A000019043F63000C4F20200016841F00401BA
:1045B0000160006800F0040001900198FFE7FFE748
:1045C0000020009043F63000C4F20200016841F080
:1045D00008010160006800F0080000900098FFE703
:1045E00005B0704780B582B040F2B800C2F200005A
:1045F000019045F20041C4F20001016048F2A0615F
:10460000C0F20101416000218160C1604FF480422D
:10461000026141618161C1610162FDF731FE18B142
:10462000FFE7FDF75DF8FFE702B080BD80B582B01F
:1046300040F20C10C2F20000019045F60001C4F2F5
:104640000001016048F2A061C0F201014160002157
:104650008160C1604FF48042026141618161C1614A
:104660000162FDF70DFE18B1FFE7FDF739F8FFE72E
:1046700002B080BD80B582B040F26010C2F200008E
:10468000019044F60041C4F2000101604FF4E131B1
:10469000416000218160C16001610C224261816141
:1046A000C161FFF70DF818B1FFE7FDF719F8FFE753
:1046B00002B080BD80B582B040F2A410C2F200000A
:1046C000019045F20001C4F2000101604FF4E131B4
:1046D000416000218160C16001610C224261816101
:1046E000C161FEF7EDFF18B1FFE7FCF7F9FFFFE747
:1046F00002B080BDFFE7FEE7FFE7FEE788B0079066
:1047000006910592079800F0070004900498C0F104
:104710000700052803D3FFE70420019004E0049874
:10472000C0F107000190FFE701980390049804305E
:10473000062803D8FFE70020009003E00498033820
:104740000090FFE70098029006980399012202FA70
:1047500001F101390840029B984005999A40013ABD
:104760001140084308B070477047000070470000D0
:1047700080B582B0009000980138B0F1807F03D3FB
:10478000FFE70120019019E0009801384EF2140172
:10479000CEF2000108604FF0FF300F2100F08EF9DB
:1047A0004EF21801CEF20001002008604EF2100215
:1047B000CEF20002072111600190FFE7019802B0DC
:1047C00080BD000080B5FEF77FF980BD80B594B054
:1047D00008A83021FBF72CFE0020079006900590DA
:1047E00004900390FFE70020029043F64000C4F2DB
:1047F0000200016841F080510160006800F08050C3
:1048000002900298FFE7FFE70020019047F20000C6
:10481000C4F20000016841F480410160006800F4C6
:10482000804001900198FFE70220089001210B9140
:1048300010210C910E9000210F9108211091582108
:10484000119112900420139008A8FEF7B7FB18B13D
:10485000FFE7FCF745FFFFE70F20039002210491DB
:10486000002005904FF4A05006904FF48050079020
:1048700003A8FEF7D3F918B1FFE7FCF731FFFFE714
:1048800014B080BD4EF68851CEF20001086840F4A5
:10489000700008607047000080B586B005900598EC
:1048A0000068006920F44050059A1168D2681043EE
:1048B0000861059988680B694A69C96918431043FA
:1048C0000843049005980068C06849F20C61884369
:1048D0000499084305990968C8600598006840690B
:1048E00020F44070059A1168926910434861059858
:1048F000006841F20001C4F20101884209D0FFE7DB
:104900000598006841F20041C4F20101884204D1D7
:10491000FFE7FEF7CDFA039003E0FEF7B7FA039046
:10492000FFE70598C069B0F5004F29D1FFE703986C
:104930001921A0FB0101059A1368029353685A00DC
:10494000DB0FFBF7E7FC0299864648F21F53C5F2DE
:10495000EB13AEFB0320420910014FF0640C02FB85
:104960001CEC322202EBCC02A2FB0332F82303EA56
:10497000521300EB4300C2F342121044886026E059
:1049800003981921A0FB0101059A1368019353684C
:104990009A009B0FFBF7BEFC0199844648F21F5218
:1049A000C5F2EB12ACFB02304309642003FB10CCD0
:1049B000322000EB0C10A0FB0202F02000EA5210A3
:1049C00000EB0310C2F3431210448860FFE706B007
:1049D00080BD000080B588B0DDF828C00690059144
:1049E0008DF813200393FFE7069800680068059987
:1049F0000840401AB0FA80F040099DF81310884230
:104A000049D1FFE70A980130002843D0FFE70A9810
:104A100040B1FFE7FDF72EFC0399401A0A9988423E
:104A200037D9FFE7FFE7FFE70698006850E8030F74
:104A300020F4D0700290FFE702990698026842E8DD
:104A400003100028F0D1FFE7FFE7FFE7FFE7069834
:104A5000006850E8050F20F001000190FFE7019980
:104A60000698026842E805100028F0D1FFE7FFE74A
:104A70000699202081F83D00069981F83E00FFE765
:104A80000699002081F83C00FFE703208DF81F0005
:104A900005E0FFE7A8E700208DF81F00FFE79DF87D
:104AA0001F0008B080BD0000FFE7FEE74EF60C5087
:104AB000CEF200000068C0F30220704782B08DF88B
:104AC000070000919DF9070000280AD4FFE700982D
:104AD00000019DF907104EF20042CEF20002885408
:104AE0000BE0009800019DF8071001F00F014EF651
:104AF0001452CEF200028854FFE702B07047000063
:104B000083B00290029800F0070000904EF60C511E
:104B1000CEF200010868019001984FF6FF021040A4
:104B200001900198009A40EA02200022C0F2FA5255
:104B3000104301900198086003B070470000000026
:104B400080B592B000201190FDF7CCFFFFF73EFE3C
:104B5000FFF7F0FCFFF7B0FCFFF744FDFFF78AFD1D
:104B6000FFF764FDFFF7A6FDFFF7CAFAFFF7E4FAC7
:104B7000FFE740F2A410C2F2000040F29821C2F216
:104B80000001049101226423FEF7C4FE4FF47A7001
:104B9000FDF772F90498007898B9FFE78020FFF7D5
:104BA00049FB45F6F550C0F60000FFF773FCC02046
:104BB000FFF740FB45F6C850C0F60000FFF76AFC5F
:104BC000FFE740F29820C2F200000078012813D1DC
:104BD000FFE78020FFF72EFB45F6F550C0F60000FA
:104BE000FFF758FCC020FFF725FB45F6E450C0F660
:104BF0000000FFF74FFCFFE740F29820C2F20000F0
:104C00000078022813D1FFE78020FFF713FB45F659
:104C1000F550C0F60000FFF73DFCC020FFF70AFB8F
:104C200045F6DD50C0F60000FFF734FCFFE740F228
:104C30009820C2F200000078032813D1FFE78020FB
:104C4000FFF7F8FA45F6F550C0F60000FFF722FC32
:104C5000C020FFF7EFFA45F6D650C0F60000FFF788
:104C600019FCFFE740F29820C2F200000078042807
:104C700017D1FFE78020FFF7DDFA45F6A650C0F612
:104C80000000FFF707FCC020FFF7D4FA45F6D0502C
:104C9000C0F60000FFF7FEFB4FF47A70FDF7ECF86A
:104CA000FFE740F27000C2F200000390FCF7FCFF47
:104CB00003980121FCF762FF0398FCF7BFFE1090F8
:104CC0009DED100AB8EEC00A10EE100A00F054FF75
:104CD00041EC100B9FED521B53EC112B51EC100BC0
:104CE00000F0F2FC41EC100B51EC100B9FED4E0B61
:104CF00053EC102B00F042FE41EC100B51EC100B6A
:104D000000F0B0FC0F909DED0F1A9FED490A30EEB8
:104D1000410A8DED0F0A9DED0F0AB5EE400AF1EE46
:104D200010FA09DAFFE79DED0F1A9FED420A30EE07
:104D3000410A8DED0F0AFFE79DED0F0A9FED3E1A28
:104D4000B4EE410AF1EE10FA31DAFFE740F2E81171
:104D5000C2F200010120087040F26010C2F20000AF
:104D600004220A23FEF788FE0F9800F005FF41ECAD
:104D7000100B53EC102B45F6B751C0F600010AA8F2
:104D80000290FBF73FFB8020FFF7F2F90298FFF754
:104D90006FFBC020FFF7ECF945F69C50C0F6000011
:104DA000FFF766FB4FF47A70FDF766F830E040F2EB
:104DB000E811C2F200010020087040F26010C2F257
:104DC000000004220A23FEF757FE0F9800F0D4FEDD
:104DD00041EC100B53EC102B45F6B751C0F6000117
:104DE00005A80190FBF70EFB8020FFF7C1F90198A1
:104DF000FFF73EFBC020FFF7BBF945F6EB50C0F6CE
:104E00000000FFF735FB4FF47A70FDF735F8FFE748
:104E100001200090FFF7ACF90098FFF70BFAA8E625
:104E2000000000000040AF400000000000005940BA
:104E30000000C8420000000000000C425FEA400C85
:104E400008BF91F0000F4FEA8C234FEAC12243EADA
:104E500051514FEA1C5018BF00F5F0404FEA3000A6
:104E600018BF41F000415FEA6C5C00F02980BCF1A2
:104E7000FF3F08BF40F080407047130C06BF12048C
:104E80004FF0100C4FF0000C130E04BF12020CF187
:104E9000080C130F04BF12010CF1040C930F04BF94
:104EA00092000CF1020CD30F04BF52000CF1010C64
:104EB00011464FF00002A0F11F00A0EB0C0070475C
:104EC00011F0004F08BF704731F000413FF4D5AFFB
:104ED0000B0C06BF09044FF0100C4FF0000C0B0E2A
:104EE00004BF09020CF1080C0B0F04BF09010CF1FF
:104EF000040C8B0F04BF89000CF1020CCB0F04BF14
:104F000049000CF1010CCCF1200322FA03F341EA31
:104F1000030102FA0CF2A0EB0C0000F10100704753
:104F200023F07F4720F07F4C80EA030000F0004030
:104F3000ACEB070303F57C5303F1FF032DE9804934
:104F400009B44FEA144324EA03484FEA154B25EA13
:104F50000B4E0FF2042606EB13273E7803FB066781
:104F6000C7F5000707FB06F64FEAD64606F102062C
:104F70004FEA543707FB066CCCF1005C4FEA1C4744
:104F80002CEA074C0CFB06F507FB06F404EB154670
:104F90004FEA961649085FEA320234BF00204FF00C
:104FA00000404FEAD13706FB07FC4FEA1C4C0CFBD4
:104FB0000BF7D21B03FB0CF761EB07010CFB0EF7A1
:104FC000B0EB074072EB17420CFB08F734BFA2EBC3
:104FD0000742B2EB074261EB17414FEA0C444FEA3C
:104FE000910706FB07FC4FEA1C4C0CFB0BF7B0EBE0
:104FF000C74072EB573203FB0CF734BFA2EBC7423A
:10500000B2EBC74261EB57310CFB0EF7B0EBC700B8
:1050100072EB57720CFB08F734BFA2EBC702B2EB7E
:10502000C70261EB57714FEA816141EA92114FEA81
:10503000826242EA90124FEA806004EBCC04039F44
:105040004FEAD13706FB07FC4FEA1C4C0CFB0BF771
:10505000D21B03FB0CF761EB07010CFB0EF7B0EB67
:10506000074072EB17420CFB08F734BFA2EB074274
:10507000B2EB074261EB17414FEA8C5504EB9C24DD
:105080004FEA910706FB07FC4FEA1C4C0CFB0BF7A1
:10509000B0EBC74072EB573203FB0CF734BFA2EB07
:1050A000C742B2EBC74261EB57310CFB0EF7B0EBD6
:1050B000C70072EB57720CFB08F734BFA2EBC702B4
:1050C000B2EBC70261EB57714FEA816141EA92117D
:1050D0004FEA826242EA90124FEA806015EB4C255B
:1050E00044F100044FEAD13706FB07FC4FEA1C4CA1
:1050F0000CFB0BF7D21B03FB0CF761EB07010CFB5E
:105100000EF7B0EB074072EB17420CFB08F734BF09
:10511000A2EB0742B2EB074261EB17414FEA813144
:1051200041EA92414FEA823242EA90424FEA8030AD
:105130004FEA0C7615EB1C1544F1000448EA0343D2
:105140004EEA0B484FF0000EB2EB080C71EB030770
:1051500024BF624639464EEB0E0E4FF0000B00188E
:10516000524149414BEB0B0BB2EB080C71EB0307BF
:105170007BF1000B24BF624639464EEB0E0E4FF01A
:10518000000B0018524149414BEB0B0BB2EB080CE2
:1051900071EB03077BF1000B24BF624639464EEBEF
:1051A0000E0E51EA020718BF46F0010616EB0E7606
:1051B00055F1000254F1000103D5BDE88901BDE8B5
:1051C0000088BDE88901BDE80048B619524141EBAD
:1051D0000101A3F10103704780807F7E7D7C7B7A93
:1051E0007978777676757473727171706F6E6E6D93
:1051F0006C6C6B6A6A696868676666656464636339
:1052000062616160605F5F5E5E5D5D5C5C5B5B5ABE
:105210005A5959585857575656555555545453532B
:1052200052525251515050504F4F4F4E4E4D4D4D86
:105230004C4C4C4B4B4B4A4A4A49494948484847D1
:10524000474747464646454545444444444343430F
:1052500043424242424141419C46002B30D47700B8
:105260002BD04FEA37071CB503B44FF010004FF0B6
:105270001001BAF1000F06D0BCF1000FDCBF40F006
:10528000080040F008014FF000000FBCBDE81040DE
:105290000BF1010BBBF1010F08BF5FEA170722BF3B
:1052A00012F1010211F101014FF0004143F100033D
:1052B00000F0004043EA00007047F9D35708D0E7F8
:1052C00046EA06464FEA164613F1400F1FDD13F17A
:1052D000200FDFBF16430A46002120335B42BED0B9
:1052E000C3F1200746EA06464FEA164602FA07F7D8
:1052F00046EA070622FA03F2C3F1200701FA07F78C
:1053000042EA070221FA03F14FF00003A7E746EA59
:10531000020646EA06464FEA164646EA0106BCBFC2
:1053200046EA0646360C4FF000034FF000024FF0FD
:10533000000194E72DE9804C70B49A46934691E8B9
:10534000380007C831EA400C48BF34EA430C03D5A3
:10535000FFF7E6FDFFF780FFF0BCBDE8008C2DE90C
:10536000804C70B49A46934691E8380007C810F014
:10537000804F08BF13F0804F03D100F005F8FFF70E
:105380006BFFF0BCBDE8008C20F07F4723F07F4C22
:1053900080EA030000F0004007EB0C03A3F57C5308
:1053A000A3F1FE0392F0000F00F0B38095F0000F20
:1053B00000F077802DE901494FEA114021EA0048C9
:1053C0004FEA144624EA064700FB06FC08FB06F6F3
:1053D00007FB08F818EB06484CEB164C00FB07F7E8
:1053E00018EB07484CEB17404FEA124B22EA0B4EE2
:1053F0004FEA154625EA06470BFB06FC0EFB06F6B0
:1054000007FB0EFE1EEB064E4CEB164C0BFB07F794
:105410001EEB074E4CEB174B18EB0B0840F100004E
:1054200018EB0E0B58EB000840F100008F1A4FF0FC
:1054300000014FF000063CBFC943661B14BFB5EB2B
:10544000040C00213CBFC943F61B4FEA174427EA6E
:1054500004454FEA1C472CEA074C04FB076205FB96
:1054600007F70CFB05F616EB074642EB174204FB69
:105470000CFC16EB0C4642EB1C421BEB060658EBF1
:10548000020241414EEA8E0E46EA9E0601D5BDE873
:105490000189B619524141EB0101A3F10103BDE8B5
:1054A00001894FEA144524EA05464FEA114721EAEB
:1054B000074C05FB07F406FB07F70CFB06F111EBA5
:1054C000074144EB174405FB0CFC11EB0C4144EB8A
:1054D0001C444FEA124722EA074C05FB07F206FB81
:1054E00007F70CFB06F616EB074642EB174205FBE7
:1054F0000CFC16EB0C4642EB1C456A1854F10001FB
:1055000048BF7047B619524141EB0101A3F10103B5
:10551000704795F0000F37D04FEA114221EA02465A
:105520004FEA144724EA074C02FB07F106FB07F792
:105530000CFB06F414EB074441EB174102FB0CFC97
:1055400014EB0C4441EB1C414FEA154725EA074C8C
:1055500002FB07F506FB07F70CFB06F616EB074602
:1055600045EB174502FB0CFC16EB0C4645EB1C42C9
:10557000121951F1000148BF7047B619524141EB71
:105580000101A3F1010370474FEA144524EA0546DF
:105590004FEA114721EA074C05FB07F106FB07F725
:1055A0000CFB06F212EB074241EB174105FB0CFC2A
:1055B00012EB0C4251EB1C414FF0000648BF704704
:1055C000921841EB0101A3F10103704703B4019864
:1055D0004100009850EAC12018BF04204A0D18BFAE
:1055E00040F0010040F2FF72B2EB515F08BF40F0A3
:1055F0000200012808BF052002B0704730380A2891
:1056000001D20120704700207047000010B500292A
:105610000AD00878002807D005487844FBF750FFE7
:10562000002801D0002010BD0248784410BD0000C1
:105630000A0800000208000010B500290AD0087806
:10564000002807D005487844FBF73AFF002801D02E
:10565000002010BD0248784410BD0000FA07000089
:10566000F207000021F0004201F00043A2F1605275
:10567000B2F5801F28BFD2F17F6C0BD95FEA001C06
:1056800043EAC20242EB507018BF704728BF20F0B7
:1056900001007047B2F5801FBCBF184670474FEA43
:1056A000410C1CF5001F02D2084600F0E3BA70B5A9
:1056B00000F00EFA00000089FFF7F6BF4FF000403F
:1056C000A0F58000704700002DE9C04130B4DFF83C
:1056D000A4C23CEA111418BF3CEA131400F0ED8098
:1056E0001CEA111481EA030544EAD57418BF1CEAC8
:1056F000131500F0C880A4EB050404F17F7404F5D1
:1057000000344FF0004545EAC12145EAC32341EA90
:10571000505143EA52534FEAC0204FEAC222994205
:1057200008BF904200F09D804FEA13650FF24416C7
:10573000765D4FEA134506FB05F7C7F1807706FB58
:1057400007F74FEAD737A7FB03687642A7FB06CED9
:10575000C8F5803838BFA8F1010807FB08E6A6FBAA
:10576000028C4FF0000EE6FB03CEDCF1000CCEF114
:10577000004E38BFAEF1010EA6FB0C584FF00007EB
:10578000E6FB0E87A1FB08C6A0FB07CE16EB0E06B4
:105790004FF0000545F10005E1FB076515F1E04E0E
:1057A0007EBFA4F580345FEA46066D4116F180079E
:1057B00045F100054FEA172747EA05674FEA152527
:1057C0004FEA0666A6F1DE46B6F1805F20D938467C
:1057D00005EBC47124F0010C01EB0C11BCF1FE6F60
:1057E00002D8F0BCBDE8008124425CBF01F5801EF8
:1057F0009EEAC47F02D4F0BCBDE80081244200F1DF
:105800003980A1F1C041F0BCBDE8004100F0AEB963
:105810004FEAD02040EA41504FEAD1214FEAD2224C
:1058200042EA43524FEAD323A7FB028607FB0366F3
:1058300005FB02661EEA0E0F58BFA6EB0056B6EB3C
:1058400000564FEA520E4EEAC37E18EB0E0E56EB90
:10585000530EBCD518EB02085E417F1C55F10005C4
:10586000B5E74FF480154FF000074FF000064FF0FA
:105870000008ACE701F1C04101F000414FF0000029
:10588000F0BCBDE800810CEA131511EA0C1F00D032
:105890000CE013EA0C1F00F026804FF0000081EAB4
:1058A000030101F00041F0BCBDE80081F0BCBDE89F
:1058B000004181EA030100F059B9F0BCBDE80041A4
:1058C00070B500F005F900BF097EFC3E00F007B896
:1058D0004FF0000081EA030101F00041704781EAC6
:1058E000030100F043B9F0BCBDE8004122494FF08C
:1058F00000007047FFFDFBF9F7F5F4F2F0EEEDEB79
:10590000E9E8E6E4E3E1E0DEDDDBDAD8D7D5D4D3BD
:10591000D1D0CFCDCCCBCAC8C7C6C5C4C2C1C0BF09
:10592000BEBDBCBBBAB9B8B7B6B5B4B3B2B1B0AF0F
:10593000AEADACABAAA9A8A8A7A6A5A4A3A3A2A1F3
:10594000A09F9F9E9D9C9C9B9A99999897979695AE
:1059500095949393929191908F8F8E8E8D8C8C8B4A
:105960008B8A8989888887878685858484838382D2
:10597000828181800000FF070000F87F70B5DFF8AA
:1059800048C11CEA111E1EBF1CEA13159EEA0C0F2B
:1059900095EA0C0F00F06F8081EA03044EEAD47E92
:1059A000AE4421EA4C1123EA4C1341F4801143F434
:1059B0008013AEF17F7EA1FB024CA0FB036536197C
:1059C00055EB0C05A1FB034C4CF10003A0FB021CA2
:1059D00016EB0C06654153F10003094218BF46F06F
:1059E000010613F4007F0BD14FEA03314FEA053073
:1059F00041EA155140EA165034036FF003020AE001
:105A00004FEAC3214FEAC52041EA555140EA5650BA
:105A1000F4026FF0020202EB2E4201EB025585EA1E
:105A2000CE710AD05FEA440C18BF24F0004450F154
:105A3000000041F1000120EAD47040F2FE7C624592
:105A400000D270BDA84214BF4FF080444FF04044D4
:105A5000002E08BF0024BEF1806FA8BFA1F1C04195
:105A6000BDE8704080F2828001F1C04101F0004148
:105A70004FF0000070470CEA13159EEA0C0F18BF98
:105A800095EA0C0F06D081EA030E4FF000000EF0ED
:105A9000004170BD00F01CF88900013E00F007B81D
:105AA00000F009B84FEA430C5FEA5C5C08D081EA79
:105AB000030100F05BB84FEA410C5FEA5C5CF6D191
:105AC00002494FF0000070470000FF070000F87F18
:105AD0000EF1020E2EF0030E5EF8046B364205D472
